:100000009DC50000BAC50000B8C50000B6C5000017
:100010000C94152DB2C500000C943C2D0C94632D4E
:10002000ACC50000AAC50000A8C500000C9420D3F0
:10003000A4C500000C9409D3A0C500009EC5000013
:100040009CC500009AC500000C94F2D296C5000031
:100050000C94F9D592C500000C94A4D68EC500006E
:100060008CC500008AC5000088C5000086C5000058
:1000700084C5000082C5000080C500007EC5000068
:100080007CC500007AC5000078C500004E284C28C9
:100090002628C0270F28D327E827F3AF2951AF52CE
:1000A000F3AFD556D556CB5275530B54D455525B3E
:1000B000E556F35B0157525B525B525B525B565BFA
:1000C000F3AFF1AF5EADF1AFF1AFF1AF78AD0DAE23
:1000D000F1AFEAAEC7C195C442CCBCCCB4CDEECD35
:1000E00005CE32CE3ECEADCEDACEEBCE37BC4BD344
:1000F0008DD3CDD30ED44FD4A4D4E5D407634236E8
:10010000B79BD8A71A39685618AEBAAB558C1D3CA8
:10011000B7CC5763BD6DEDFD753EF6177231BF006C
:100120000000803F08000000BE922449123EABAAA6
:10013000AA2ABECDCCCC4C3E00000080BEABAAAA01
:10014000AA3E00000000BF000000803F0000000049
:1001500000084178D3BB4387D1133D190E3CC3BD82
:100160004282AD2B3E68EC8276BED98FE1A93E4C2F
:1001700080EFFFBE01C4FF7F3F0000000000004091
:100180007A10F35A00A0724E18090010A5D4E800A6
:1001900000E87648170000E40B54020000CA9A3BBE
:1001A000000000E1F5050000809698000000404244
:1001B0000F000000A08601000000102700000000D2
:1001C000E803000000006400000000000A000000D6
:1001D00000000100000000002C76D888DC674F0882
:1001E00023DFC1DFAE59E1B1B796E5E3E453C63A88
:1001F000E651997696E8E6C28426EB898C9B62EDFF
:10020000407C6FFCEFBC9C9F40F2BAA56FA5F490B8
:10021000055A2AF75C936B6CF9676DC11BFCE0E42F
:100220000D47FEF520E6B500D0ED902E0300943585
:1002300077050080841E080000204E0A000000C8D8
:100240000C333333330F986E12831141EF8D211429
:10025000893BE65516CFFEE6DB18D1844B381BF7F9
:100260007C1D901DA4BBE424203284725E22810098
:10027000C9F124ECA1E53D270000000000000000CA
:10028000040E0E04040004001B1B120000000000FA
:10029000000A1F0A0A1F0A00080E100C021C0400A4
:1002A00019190204081313000814140815120D007C
:1002B0000C0C0800000000000408080808080400EE
:1002C0000804040404040800000A0E1F0E0A0000BB
:1002D0000004041F0404000000000000000C0C08CF
:1002E0000000001F0000000000000000000C0C00D7
:1002F00000010204081000000E11131519110E0060
:10030000040C040404040E000E11010608101F0062
:100310000E11010E01110E0002060A121F02020048
:100320001F10101E01110E000608101E11110E00E4
:100330001F010204080808000E11110E11110E0011
:100340000E11110F01020C0000000C0C000C0C002F
:1003500000000C0C000C0C08020408100804020039
:1003600000001F00001F0000080402010204080032
:100370000E110106040004000E11171517100E00CF
:100380000E11111F111111001E11111E11111E004D
:100390000E11101010110E001E11111111111E005E
:1003A0001F10101E10101F001F10101E1010100024
:1003B0000E11101711110F001111111F1111110041
:1003C0000E04040404040E000101010111110E00C9
:1003D00011121418141211001010101010101F0018
:1003E000111B151111111100111915131111110003
:1003F0000E11111111110E001E11111E10101000FE
:100400000E11111115120D001E11111E12111100E5
:100410000E11100E01110E001F0404040404040048
:100420001111111111110E0011111111110A0400F5
:100430001111151515150A0011110A040A111100E0
:100440001111110A040404001E02040810101E00F9
:100450000E08080808080E00001008040201000039
:100460000E02020202020E00040A11000000000047
:10047000000000000000001F0C0C04000000000041
:1004800000000E010F110F0010101E1111111E009F
:1004900000000E1110110E0001010F1111110F00BB
:1004A00000000E111F100E000608081E08080800A4
:1004B00000000F11110F010E10101C121212120069
:1004C0000400040404040400020006020202120CE8
:1004D000101012141814120004040404040406007A
:1004E00000001A151511110000001C121212120042
:1004F00000000E1111110E0000001E1111111E102E
:1005000000000F1111110F010000160908081C004E
:1005100000000E100E010E0000081E08080A04005C
:100520000000121212160A0000001111110A040034
:1005300000001111151F0A00000012120C12120007
:1005400000001212120E041800001E020C101E00F1
:10055000060808180808060004040404040404003B
:100560000C02020302020C00000000000000000068
:100570000A000E010F110F000A000E1111110E00DA
:100580000A00121212160A000A0E111F1111110090
:100590000A0E111111110E000A11111111110E0084
:1005A0000C12121C12121C100000000000000000AF
:1005B000000000000000000000183C3C3C1818003F
:1005C00018180000006666662400000000000000A5
:1005D00000000000006C6CFE6C6C6CFE6C6C00002B
:1005E0000018187CC6C2C07C0686C67C181800009D
:1005F000000000C2C60C183066C6000000000038BB
:100600006C6C3876DCCCCC76000000181818300002
:1006100000000000000000000000000C1830303026
:100620003030180C000000000030180C0C0C0C0CC2
:10063000183000000000000000663CFF3C6600002F
:100640000000000000000018187E181800000000CC
:100650000000000000000000001818183000000022
:100660000000000000FE000000000000000000008C
:100670000000000000001818000000000002060C36
:10068000183060C080000000000000386CC6C6D67C
:10069000C6C66C3800000000001838781818181802
:1006A000187E00000000007CC6060C183060C6FEF4
:1006B00000000000007CC606063C0606C67C000062
:1006C0000000000C1C3C6CCCFE0C0C1E000000005A
:1006D00000FEC0C0C0FC0606C67C0000000000385A
:1006E00060C0C0FCC6C6C67C0000000000FEC60696
:1006F0000C183030303000000000007CC6C6C67CCC
:10070000C6C6C67C00000000007CC6C6C67E0606C3
:100710000C780000000000001818000000181800F5
:100720000000000000001818000000181830000039
:100730000000000C183060C06030180C0000000091
:10074000000000007E00007E00000000000000604D
:1007500030180C060C18306000000000007CC6C683
:100760000C181800181800000000007CC6C6DEDE59
:10077000DEDCC07C000000000010386CC6C6FEC67F
:10078000C6C60000000000FC6666667C666666FC05
:1007900000000000003C66C2C0C0C0C2663C000051
:1007A000000000F86C66666666666CF80000000083
:1007B00000FE66626878686266FE0000000000FE67
:1007C00066626878686060F000000000003C66C205
:1007D000C0C0DEC6663A0000000000C6C6C6C6FE3F
:1007E000C6C6C6C600000000003C18181818181825
:1007F000183C00000000001E0C0C0C0C0CCCCC783B
:100800000000000000E6666C6C786C6C66E6000028
:10081000000000F060606060606266FE0000000042
:1008200000C6EEFED6C6C6C6C6C60000000000C69C
:10083000E6F6FEDECEC6C6C600000000007CC6C6D8
:10084000C6C6C6C6C67C0000000000FC6666667CA4
:10085000606060F000000000007CC6C6C6C6C6D658
:10086000DE7C0E00000000FC6666667C6C6666E658
:1008700000000000007CC6C660380CC6C67C0000C4
:100880000000007E7E5A18181818183C000000005E
:1008900000C6C6C6C6C6C6C6C67C0000000000C6E6
:1008A000C6C6C6C6C66C38100000000000C6C6C664
:1008B000C6D6D6FE6C6C0000000000C6C6C67C38EA
:1008C0007CC6C6C60000000000666666663C181856
:1008D000183C0000000000FEC68C183060C2C6FE46
:1008E00000000000003C303030303030303C000040
:1008F00000000080C0E070381C0E060200000000FE
:10090000003C0C0C0C0C0C0C0C3C000010386CC6A1
:1009100000000000000000000000000000000000D7
:1009200000000000000000FF0030180C0000000074
:10093000000000000000000000000000780C7CCCEB
:10094000CC760000000000E06060786C6666667C33
:1009500000000000000000007CC6C0C0C67C000093
:100960000000001C0C0C3C6CCCCCCC7600000000D1
:10097000000000007CC6FEC0C67C00000000001C19
:100980003632307C3030307800000000000000004B
:1009900076CCCCCC7C0CCC78000000E060606C762F
:1009A000666666E60000000000181800381818187F
:1009B000183C00000000000606000E06060606664B
:1009C000663C000000E06060666C786C66E60000E3
:1009D00000000038181818181818183C00000000FB
:1009E00000000000ECFED6D6D6D6000000000000C5
:1009F0000000DC666666666600000000000000001D
:100A00007CC6C6C6C67C0000000000000000DC6694
:100A100066667C6060F000000000000076CCCCCC04
:100A20007C0C0C1E000000000000DC76666060F0AC
:100A300000000000000000007CC6701CC67C0000A6
:100A4000000000103030FC303030361C0000000058
:100A500000000000CCCCCCCCCC7600000000000024
:100A60000000C6C6C66C3810000000000000000080
:100A7000C6C6D6D6FE6C0000000000000000C66CA2
:100A800038386CC60000000000000000C6C6C6C6AC
:100A90007E060C78000000000000FECC183066FED8
:100AA00000000000000E181818701818180E00002A
:100AB000000000181818181818181818000000005E
:100AC00000701818180E181818700000FF000000A9
:100AD000000000000000000000FF000000480000CF
:100AE000780C7CCCCC7600000000004800007CC66E
:100AF000C6C6C67C0000000000480000CCCCCCCCB0
:100B0000CC76000000440010386CC6C6FEC6C6C6CF
:100B100000000044007CC6C6C6C6C6C6C67C00002F
:100B2000004400C6C6C6C6C6C6C6C67C00000000D5
:100B30000078CCCCF8CCCCCCF8C0C0C011241FBEFF
:100B4000CFEFD0E4DEBFCDBF1CE0A0E0B1E0ECE22F
:100B5000FBEC01E00BBF02C007900D92AE39B1076C
:100B6000D9F72CE1AEE9BCE001C01D92AD39B20766
:100B7000E1F70E9422390C9494E542CA00C000C0FB
:100B800000C000C000C000C0000008953C983A9822
:100B90004498429808953C9AF1DF1DC008953A9A0E
:100BA000EDDF3C98EBDF3A98E9DF3C9AE7DF13C0D2
:100BB0000895082E3C9AE2DF802D0DD0882311F095
:100BC00002D0F8CF08953A9A3C9AD8DF3A98D6DF07
:100BD0003C98D4CF08950894881F01C0880F59F01D
:100BE0003A9A18F400003C9802C03C9A00C0C6DF54
:100BF0003A98C4DFF3CF3A9A3C98C0DF3A98329BD8
:100C0000FECF8827349981E0B9DF99270895882796
:100C100001C081E071E03A9A3C98B0DF3A98AEDFCB
:100C2000329BFECF889434990894771FA0F73A9AA4
:100C3000813011F03C9801C03C9AA0DF3A98329B79
:100C4000FECF9CDF872F9927089597E890937A002D
:100C500080937C0080917C00806480937C008091F4
:100C60007A00806480937A0080917A0086FDFCCFC0
:100C700008958F929F92AF92BF92CF92DF92EF92A0
:100C8000FF924B015C01BA01550F880B990B0E9432
:100C9000BCDC9B01AC0160E070E080E291E40E946A
:100CA00026DE0E9489DC072E000C880B990B0E941F
:100CB000BCDC6B017C01A50194010E94C3DD4B01EA
:100CC0005C0120E030E0A9010E94BFDD20E030E0BF
:100CD00040E05FE318162CF4C501B4010E94A6DBC6
:100CE00004C0C501B4010E94A5DB0E9489DC072E67
:100CF000000C880B990B0E94BCDCA70196010E9496
:100D000021DCFF90EF90DF90CF90BF90AF909F904D
:100D10008F90089527EE36EC44E95EE30E94C3DD30
:100D200026EB34E840E150E40C94A5DB2CE234EDF2
:100D30004AE95DE30E94C3DD20E030E0A9010C94A4
:100D4000A6DB23E039E04AE85CE30E94C3DD20E053
:100D500030E0A9010C94A6DB4F925F926F927F92D4
:100D60008F929F92AF92BF92CF92DF92EF92FF92BB
:100D70000F931F934B015C0129013A016701780130
:100D80009F7720E030E44CE955E40E94BFDD18165F
:100D90005CF1A3019201C501B4010E941DDC87FD35
:100DA00028C0A7019601C501B4010E94BFDD181635
:100DB0002CF1A5019401C701B6010E94A5DB4B01EE
:100DC0005C01A3019201C701B6010E94A5DB9B0152
:100DD000AC01C501B4010E9421DC20E030E048EC08
:100DE00052E40E94C3DD0DC060E070E08AEF94E43D
:100DF00008C060E070E088EC92E403C060E070E05E
:100E0000CB011F910F91FF90EF90DF90CF90BF909B
:100E1000AF909F908F907F906F905F904F900895CC
:100E2000CF92DF92EF92FF92CF93DF93D62F8093F2
:100E30007C0080917C00806480937C00C0E0C12CA9
:100E4000D12C7601CD17D9F080917A0080648093FF
:100E50007A0080917A0086FDFCCF609178007091D5
:100E6000790080E090E00E94BADC9B01AC01C701F0
:100E7000B6010E94A6DB6B017C01CF5FE3CF6C2F34
:100E800070E080E090E00E94BCDC9B01AC01C701F7
:100E9000B6010E9421DCDF91CF91FF90EF90DF90AF
:100EA000CF9008954F925F926F927F928F929F9210
:100EB000AF92BF92CF92DF92EF92FF926B017C01D3
:100EC00029013A016AE083E0ABDF23E039E04AE838
:100ED0005CE30E94C3DD20E030E0A9010E94A6DBB4
:100EE0004B015C019B01AC01C701B6010E94BFDD53
:100EF0001816F4F0A7019601C501B4010E94A5DB04
:100F000020E030E048EC52E40E94C3DD4B015C017C
:100F1000A7019601C301B2010E94A5DB9B01AC01B0
:100F2000C501B4010E9421DC0E948EDC862F01C025
:100F300080E0FF90EF90DF90CF90BF90AF909F90B8
:100F40008F907F906F905F904F9008954F925F9237
:100F50006F927F928F929F92AF92BF92CF92DF92C9
:100F6000EF92FF920F931F93CF93DF93CDB7DEB72E
:100F700060970FB6F894DEBF0FBECDBF69837A834A
:100F80008B839C832D833E834F835887E986FA8623
:100F90000B871C87AD86BE86CF86D88A682C5BA857
:100FA00020E030E04AE754E46BA17CA18DA19EA132
:100FB0000E94C3DD0E948EDC4B015C0120E030E02A
:100FC0004AE754E46BA57CA58DA59EA50E94C3DDD0
:100FD0000E948EDC6B017C01552039F08091A10CC0
:100FE00041E069E68B5F0E944F1283E88093B00076
:100FF00085E08093B100579A27ED34E34FE55FE336
:101000006FA178A589A59AA50E94C3DD26EF38E2D5
:101010004EEA51E40E94A6DB0E9472DE0E948EDC42
:101020006093B30040E062E0C4010E9437D340E027
:1010300062E080E090E00E9437D38111F8CF552024
:1010400041F120E030E040E251E46BA17CA18DA1B0
:101050009EA10E94C3DD4B015C012BA53CA54DA5C3
:101060005EA56BA17CA18DA19EA10E94A6DB9B0128
:10107000AC01C501B4010E9421DC0E94F7DC109193
:10108000A10C0E948EDC462F69E685E0810F0E944C
:101090004F1227ED34E34FE55FE36FA578A989A9E7
:1010A0009AA90E94C3DD26EF38E24EEA51E40E947D
:1010B000A6DB0E9472DE0E948EDC6093B30040E0EB
:1010C00062E0C6010E9437D340E062E080E090E039
:1010D0000E9437D38111F8CF552039F08091A10CAF
:1010E00049E069E68B5F0E944F12712C812C912C94
:1010F0005401750164017614C1F06AE082E090DE6B
:101100009B01AC01C701B6010E94A6DB6B017C010B
:101110006AE081E085DE9B01AC01C501B4010E945B
:10112000A6DB4B015C017394E6CF8AB11AB8552057
:1011300039F08091A10C4AE069E68B5F0E944F1262
:10114000662D70E080E090E00E94BCDC2B013C0149
:101150009B01AC01C501B4010E9421DC4B015C0183
:1011600020E030E0A9010E941DDC181634F0812C2B
:10117000912C80E8A82E8FE3B82E27EE36EC44E9B8
:101180005EE3C501B4010E94C3DD26EB34E840E113
:1011900050E40E94A5DB4B015C0120E030E040E21E
:1011A00051E40E94BFDD181644F5A3019201C70166
:1011B000B6010E9421DC2CE234ED4AE95DE30E9495
:1011C000C3DD20E030E0A9010E94A6DB29853A8535
:1011D0004B855C850E94C3DD20E030E04AE754E4A3
:1011E0000E94C3DDA50194010E9421DC2D853E856E
:1011F0004F8558890E94A6DB04C060E07CE38CE147
:1012000096E4ED80FE800F81188529813A814B811B
:101210005C81A2DD60960FB6F894DEBF0FBECDBF35
:10122000DF91CF911F910F91FF90EF90DF90CF90C2
:10123000BF90AF909F908F907F906F905F904F90F6
:10124000089580910801882329F0833019F080EBFC
:1012500090E0089584E890E0089580910801882343
:1012600029F0833019F084E890E0089580EB90E055
:1012700008950CB406FE07C00DB407FEFDCF8CB573
:101280008F7B8CBDF6CF08950F931F93CF93DF9381
:10129000EC018C01060F171FC017D10739F08CB570
:1012A00080648CBD89918EBDE4DFF6CFDF91CF9154
:1012B0001F910F910895CF93DF93CDB7DEB72C9791
:1012C0000FB6F894DEBF0FBECDBF9FEE998398E0B6
:1012D0009A8398E19B831C8292E19D838E8395E1A2
:1012E0009F83488793E199876A8796E19B872C873C
:1012F00090910801953091F09630D1F0933009F536
:101300009C8393E8392F381B3E83941B98878FEA80
:10131000982F961B9A87821B8C8713C09C8393E817
:10132000392F361B3E83921B98878A874C8709C0CA
:101330009C836E8328879FEA292F281B2A87941B6A
:101340009C872C9A2A986CE070E0CE0101969CDF75
:101350002C982C960FB6F894DEBF0FBECDBFDF9150
:10136000CF910895DF92EF92FF920F931F93CF9347
:10137000DF937B01EC0100E010E00E151F05A1F0EA
:101380002C9A2A98D880998122968CB580648CBD3D
:101390009EBD6FDF8CB580648CBDDEBC6ADF2C988F
:1013A0002A9A0F5F1F4FE9CFDF91CF911F910F91C5
:1013B000FF90EF90DF900895CF93DF93CDB7DEB726
:1013C000C654D1090FB6F894DEBF0FBECDBF8FEF64
:1013D00084B98DB581608DBD80E58CBD2FEF8FE91F
:1013E00095E0215080409040E1F700C000002E9829
:1013F0002FEF87E691E0215080409040E1F700C058
:1014000000002A9A2FEF87E691E02150804090401B
:10141000E1F700C000002F982FEF87E691E0215000
:1014200080409040E1F700C000002C9A2FEF87E643
:1014300091E0215080409040E1F700C000002E9ADA
:101440002FEF87E691E0215080409040E1F700C007
:10145000000086E4E8E1F1E0DE01119601900D92D2
:101460008A95E1F762E070E0CE0101967BDF2FEF15
:1014700087E691E0215080409040E1F700C00000F5
:101480006AE070E0CE0105966DDF2FEF87E691E010
:10149000215080409040E1F700C0000067E170E01B
:1014A000CE0149965FDF2A98CA5BDF4F0FB6F894EA
:1014B000DEBF0FBECDBFDF91CF910895CF93C82F70
:1014C0008CB580648CBD9EBDD4DE8CB580648CBD33
:1014D000CEBDCF91CECE2F923F924F925F926F9220
:1014E0007F928F929F92AF92BF92CF92DF92EF92B4
:1014F000FF920F931F93CF93DF93CDB7DEB76D9716
:101500000FB6F894DEBF0FBECDBF962E215022300D
:1015100030F4222351F021E068EA75E008C021E0B0
:10152000A8EAB5E0BA83A98304C068E772E07A83C9
:101530006983FC0101900020E9F774E0279FD00146
:101540001124A050BF4F2C91622F70E07C836B83DD
:1015500011968C901197282D30E038872F831296A2
:101560006C91129713962C91A22FB0E0BA87A9879D
:10157000AE2DB0E0BE87AD8750E0DA012E9DA00D04
:10158000B11D11241196B88BAF87E02EF12CFE828D
:10159000ED82609F90011124D9011197BD8BAC8B16
:1015A000262F30E0EB80FC802E193F09AD81BE81F3
:1015B0002A9F70012B9FF00C3A9FF00C1124FA8A9D
:1015C000E98A609F002D11240B8B9D8F8C8F9F01CA
:1015D000215031093F8B2E8B4A8F5B8FEC8CFD8C19
:1015E0002E893F89E216F30609F488C0AC8DBD8DC3
:1015F000ED91BD8FAC8FEB3748F0E45CE93328F414
:10160000F0E0EE59FE4FE08101C0EFE3E0528E9E24
:1016100070011124FC86EB86892D90E04C895D8950
:10162000480F591F2F8538896A8D7B8D44DE00E075
:1016300010E0EB85FC85E00FF11FE980FA80EE0DEC
:10164000FF1DE491EF80F8840E151F0508F0E0E01F
:1016500066246394712CEE2EF12CF98EE88EED84C5
:10166000FE84E614F70408F43DC0EE24E394F12C64
:1016700069897A896E157F0534F0C5011FDF2FEF68
:10168000E21AF20AF5CFEB80FC8071E0E71AF1086C
:101690002FEFE216F20611F1888D998D0E2C02C003
:1016A000959587950A94E2F780FD03C03A2C2B2C80
:1016B00002C03C2C2D2C44244394512CAD81BE817E
:1016C000A415B50538F0832D922DF8DE8FEF481A5A
:1016D000580AF4CFB1E0EB1AF108DACF3FEF631A02
:1016E000730ABDCF0F5F1F4FE984FA84E016F1063D
:1016F00008F09FCF2A9AFB889F0C70CF6D960FB68B
:10170000F894DEBF0FBECDBFDF91CF911F910F9137
:10171000FF90EF90DF90CF90BF90AF909F908F9011
:101720007F906F905F904F903F902F900895EF9231
:10173000FF920F931F93CF93DF937C018EDDEC011B
:1017400080DD9E0121503109AC014150510960E01A
:1017500070E080E090E0AFDDC0E0D0E072DD8C01B1
:101760007CDD9C01029FC001039F900D129F900D94
:101770001124C817D90720F4C701A0DE2196EECFA7
:101780002A9ADF91CF911F910F91FF90EF900895CA
:10179000CF93DF93E90170E090E09B01413069F461
:1017A0002F5F3F4FAC014F5F5F4F85DDCE0186DE7F
:1017B000CE0184DECE0182DE02C0AC017CDDCE0132
:1017C0007DDE2A9ADF91CF9108952F923F924F921A
:1017D0005F926F927F928F929F92AF92BF92CF92C1
:1017E000DF92EF92FF920F931F93CF93DF93CDB7CA
:1017F000DEB727970FB6F894DEBF0FBECDBF0983C3
:101800003701C82ED12CE62EF12C842F90E09F8337
:101810008E834C018C189D08022F10E05801AE18E1
:10182000BF0897FE07C091948194910822242A94BE
:10183000322C03C022242394312CB7FE07C0B1946C
:10184000A194B10844244A94542C03C044244394E2
:10185000512CC401880F991F9B838A83C501880F6F
:10186000991F9D838C838A149B04ECF08701E12CE3
:10187000F12C8E819F81C816D906A9F19301498167
:10188000602F8C2D85DFC20CD31C8C819D81E80ECE
:10189000F91E8E149F046CF7040D151D8A819B811F
:1018A000E81AF90AE6CFDF82CE82C12CD12CE016ED
:1018B000F106C9F0930149816E2D8E8169DFE40C38
:1018C000F51C8A819B81C80ED91EAC14BD047CF71F
:1018D0008E819F81820D931D9F838E838C819D813C
:1018E000C81AD90AE4CF93014981602F8E812796C7
:1018F0000FB6F894DEBF0FBECDBFDF91CF911F9121
:101900000F91FF90EF90DF90CF90BF90AF909F909E
:101910008F907F906F905F904F903F902F9038CF37
:10192000AF92BF92CF92DF92EF92FF920F931F93ED
:10193000CF93DF93C82FD62FC42E122F262F45DF2B
:10194000212F4C2D6D2F8C2D40DF212F4C2D612F01
:101950008C2F3BDF212F4C2F6D2F8C2F36DFDF910B
:10196000CF911F910F91FF90EF90DF90CF90BF909C
:10197000AF900895AF92BF92CF92DF92EF92FF9215
:101980000F931F93CF93DF93C22FD0E0E42EF12C5F
:10199000C62ED12CA82EB12C9E01A701B601C501DF
:1019A0008ADCEA18FB088FEFE81AF80ACC19DD097F
:1019B0002196EC9E6001ED9ED00CFC9ED00C112473
:1019C000C0E0D0E0CC15DD0521F0C80177DD21961F
:1019D000F9CF2A9ADF91CF911F910F91FF90EF904D
:1019E000DF90CF90BF90AF9008952F923F924F928B
:1019F0005F926F927F928F929F92AF92BF92CF929F
:101A0000DF92EF92FF920F931F93CF93DF9300D05B
:101A100000D0CDB7DEB72C011B013A014901CA0144
:101A200086DE1A8280910801853011F1863009F036
:101A30003EC0840128E746EA69E181E19BDFF201CB
:101A400001900020E9F73197E419F5098E2F880FEE
:101A5000880FE80F6EE56E1B53016401EE24E394DA
:101A600001E022E041E0C20136DD94E19B833DC00C
:101A7000840128E740EA69E18AE07CDFF201019015
:101A80000020E9F73197E419F5098E2F880F880FA8
:101A9000E80F67E56E1B53016401EE24E39401E057
:101AA00022E041E0C20117DD8DE08B831EC084017E
:101AB00025EA48E769E18AE05DDFF2010190002054
:101AC000E9F73197E419F5098E2F880F880FE80F91
:101AD00061E46E1B53016401EE24E39401E022E013
:101AE00041E0C201F8DCEDE0EB83F1010190002060
:101AF000E9F731978E2F82198C83F22C21012B80EC
:101B00001CE1842D8F199C818917C0F4F201819109
:101B10002F018A3089F0898354016301EE24E39414
:101B200001E021E0412F622DCE010196D4DCF6E0E8
:101B30002F0E8FE9821528F71E3638F180910801A3
:101B4000853031F1863021F553016401EE24E394B0
:101B500001E022E041E063E08EE591E0BCDC22E0C0
:101B600041E163E081E89AE0B6DC22E041E263E033
:101B700085ED9AE0B0DC22E043E663E080E691E0A8
:101B8000AADC22E043E763E023C0165F2B80B9CFD5
:101B900053016401EE24E39401E022E041E065EAB0
:101BA0008EE591E098DC22E041E165EA81E89AE087
:101BB00092DC22E041E265EA85ED9AE08CDC22E0ED
:101BC00043E665EA80E691E086DC22E043E765EAE9
:101BD00083EC97E080DC0E948A2D892BE1F70E943C
:101BE000982D0E948A2D84309105CCF38630910582
:101BF0002CF00897029798F780E001C081E00F90E1
:101C00000F900F900F90DF91CF911F910F91FF9048
:101C1000EF90DF90CF90BF90AF909F908F907F908C
:101C20006F905F904F903F902F9008952F923F922A
:101C30004F925F926F927F928F929F92AF92BF92DC
:101C4000CF92DF92EF92FF920F931F93CF93DF9388
:101C5000CDB7DEB766970FB6F894DEBF0FBECDBF27
:101C6000DC01CB01942E822E28014AE09E012F5FD9
:101C70003F4F3901B9010E940AE0F30101900020B1
:101C8000E9F73197CF01861997099E8B8D8BA12C8F
:101C9000B12C6701EE24E39401E022E0482D692D88
:101CA000C30119DC63E0690D2D8999E0299F600D5E
:101CB000112422E0482DC2010EDC66960FB6F8947E
:101CC000DEBF0FBECDBFDF91CF911F910F91FF906F
:101CD000EF90DF90CF90BF90AF909F908F907F90CC
:101CE0006F905F904F903F902F9008952F923F926A
:101CF0004F925F926F927F928F929F92AF92BF921C
:101D0000CF92DF92EF92FF920F931F93CF93DF93C7
:101D1000CDB7DEB766970FB6F894DEBF0FBECDBF66
:101D2000DC01CB01942E822E28014AE09E012F5F18
:101D30003F4F1901B9010E940AE0F1010190002012
:101D4000E9F73197CF01821993099E8B8D8BA12CD6
:101D5000B12C6701EE24E39401E022E0482D692DC7
:101D60008BEB91E0B8DB68E2690D22E0482D8FEB48
:101D700091E0B1DB22E0482D692DC101ACDB63E0CD
:101D8000690D2D8999E0299F600D112422E0482DCD
:101D9000C201A1DB66960FB6F894DEBF0FBECDBFC1
:101DA000DF91CF911F910F91FF90EF90DF90CF9037
:101DB000BF90AF909F908F907F906F905F904F906B
:101DC0003F902F9008952F923F924F925F926F9283
:101DD0007F928F929F92AF92BF92CF92DF92EF92BB
:101DE000FF920F931F93CF93DF93CDB7DEB7669724
:101DF0000FB6F894DEBF0FBECDBF342E222E2701C2
:101E000036019E012F5F3F4F4901023079F030F4D7
:101E1000011114C0890120E043E013C0033051F0E8
:101E2000043061F4890124E047E00BC0890122E01D
:101E300045E007C0890123E046E003C0840121E0BA
:101E400044E00E94C6DFF40101900020E9F73197D9
:101E5000CF01881999099E8B8D8BA12CB12C630120
:101E6000EE24E39401E022E0422D632DC40133DB34
:101E700063E0630D2D8999E0299F600D112422E014
:101E8000422DC20128DB66960FB6F894DEBF0FBE66
:101E9000CDBFDF91CF911F910F91FF90EF90DF9019
:101EA000CF90BF90AF909F908F907F906F905F90FA
:101EB0004F903F902F9008952F923F924F925F92B4
:101EC0006F927F928F929F92AF92BF92CF92DF924A
:101ED000EF92FF920F931F93CF93DF93CDB7DEB7AF
:101EE00066970FB6F894DEBF0FBECDBF342E222EFC
:101EF000270136019E012F5F3F4F4901023079F0E3
:101F000030F4011114C0890120E043E013C0033014
:101F100051F0043061F4890124E047E00BC08901ED
:101F200022E045E007C0890123E046E003C08401C8
:101F300021E044E00E94C6DFF40101900020E9F7AF
:101F40003197CF01881999099E8B8D8BA12CB12CCB
:101F50006301EE24E39401E022E0422D632D89EB3E
:101F600091E0B9DA22E0422D632DC401B4DA63E0D6
:101F7000630D2D8999E0299F600D112422E0422DE7
:101F8000C201A9DA66960FB6F894DEBF0FBECDBFC8
:101F9000DF91CF911F910F91FF90EF90DF90CF9045
:101FA000BF90AF909F908F907F906F905F904F9079
:101FB0003F902F900895AF92BF92CF92DF92EF9211
:101FC0000F93CF93DF93EC018091A20C81111DC080
:101FD00061110FC0A12CB12C3FEDC32E3AE5D32ED9
:101FE000EE24E39401E021E04AE562E08AEA91E030
:101FF00072DAA12CB12CCC24CA94DC2CEE24E3940C
:1020000001E021E04AE562E020C0611111C0609169
:1020100009016E5FA12CB12C9FEDC92E9AE5D92E36
:10202000EE24E39401E021E04AE58AEA91E053DA04
:10203000609109016E5FA12CB12CCC24CA94DC2CD8
:10204000EE24E39401E021E04AE5CE0144DADF9199
:10205000CF910F91EF90DF90CF90BF90AF90089508
:102060002F923F924F925F926F927F928F929F92A8
:10207000AF92BF92CF92DF92EF92FF920F93CF93E6
:10208000DF93CDB7DEB72E970FB6F894DEBF0FBE45
:10209000CDBF2B013C012B873C874D875E8760912C
:1020A000A10C665FA12CB12CCC24CA94DC2C84E05A
:1020B000E82E04E022E045E28CEB91E00CDA20E02F
:1020C00030E04AEF54E4C301B2010E941DDC8111EB
:1020D0000CC06091A10C675EB2E0EB2E02E022E042
:1020E00045E281EC91E0F7D9D2C02B853C854D8546
:1020F0005E85C301B2010E94C3DD20E030E048EC00
:1021000052E40E9421DC0E9472DE6B017C0120E01F
:1021100030E0A901C301B2010E941DDC9E012F5FC6
:102120003F4F490120E030E048EC52E487FD88C091
:10213000C301B2010E94BFDD18161CF0C701B60131
:1021400006C06B857C858D859E850E9472DE0E940F
:1021500089DC1B013F926F9386E298E09F938F93F7
:102160009F928F920E9423E06091A10C6E5FA12C40
:10217000B12CCC24CA94DC2CA4E0EA2E04E022E0AA
:1021800045E2C401A8D90F900F900F900F900F90C7
:102190000F903AE02316310424F46091A10C635DA2
:1021A00009C06091A10C84E62816310414F4605B28
:1021B00001C06259A12CB12CCC24CA94DC2C52E071
:1021C000E52E02E022E04DE388E394E084D96091BB
:1021D000A10C6F5FA12CB12CCC24CA94DC2CEE2472
:1021E000E39401E022E044E680EB91E074D9409171
:1021F000A10C4E5FE8ECEE2EE1E0FE2E24E6C301DA
:10220000B2015ADE20E030E048EC52E4C301B201F2
:102210000E941DDC4091A10C87FF02C04B5A04C0F4
:10222000435ACC24CA94DC2C28E3E22E24E0F22E7C
:1022300000E024E66B857C858D859E853DDE27C08C
:10224000C301B2010E94BFDD18160CF47ACF1F92B1
:102250001F9286E298E09F938F939F928F920E94A5
:1022600023E06091A10C6E5FA12CB12CCC24CA9408
:10227000DC2C94E0E92E04E022E045E2C4012BD9F5
:102280000F900F900F900F900F900F9086CF2E967B
:102290000FB6F894DEBF0FBECDBFDF91CF910F9187
:1022A000FF90EF90DF90CF90BF90AF909F908F9076
:1022B0007F906F905F904F903F902F9008954F9236
:1022C0005F926F927F928F929F92AF92BF92CF92C6
:1022D000DF92EF92FF920F931F93CF93DF93CDB7CF
:1022E000DEB765970FB6F894DEBF0FBECDBF488B43
:1022F000598BF62E6A8B7B8B8C8B9D8B2801390139
:10230000152FE11011C06091A10C6E5FA12CB12CB2
:102310002FEDC22E2AE5D22EEE24E39401E022E036
:1023200044E181EB91E0D7D8CE0101964C011A30FF
:10233000B0F51F921F931F92FF928DEC91E09F9337
:102340008F939F928F920E9423E00FB6F894DEBF86
:102350000FBECDBF6091A10C6E5FA12CB12CCC241F
:10236000CA94DC2CEE24E39401E022E044E1C401B1
:10237000B2D820E030E0A901C301B2010E94BFDD64
:102380001816A4F44091A10C445C86EDE82E81E07F
:10239000F82E00E024E1C301B20115DD07C01F9251
:1023A0001F931F92FF928CED91E0C9CF65960FB6F7
:1023B000F894DEBF0FBECDBFDF91CF911F910F917B
:1023C000FF90EF90DF90CF90BF90AF909F908F9055
:1023D0007F906F905F904F900895AF92BF92CF9291
:1023E000DF92EF92FF920F931F93CF93DF93D62F3D
:1023F000C82F853608F0C4E64091A10C8091A10C4D
:10240000445700E010E023E867E78A5DB3DA4091C3
:10241000A10C8091A10C44579FEDE92E9AE5F92E6D
:1024200022E868E78A5D7CDA4091A10C8091A10CDA
:10243000495D4C0FCD1718F400E018EF02C000EE14
:1024400017E021E869E7895D95DA6091A10C6F5F7B
:10245000A12CB12C8FEDC82E8AE5D82EEE24E39462
:1024600001E022E046E784EE91E035D8DF91CF919C
:102470001F910F91FF90EF90DF90CF90BF90AF90A2
:1024800008950F931F9328E0260F48E8480F6350E4
:1024900000E010E083506EDA1F910F910895AF9223
:1024A000BF92CF92DF92EF92FF920F931F93CF9341
:1024B000DF9300D000D01F92CDB7DEB7442309F4DC
:1024C0005FC09091A00C491709F45AC0B42E2AE0BD
:1024D000241710F44AE0B42ED62EC82EB91608F4EC
:1024E000D0DFB092A00C2FEDE22E2AE5F22E00E014
:1024F00027E02D0D44E64C0D6EEF6D0D8EEF8C0D2B
:102500000FDAEC2CF12C35E0A32EAD0CFB1461F0AE
:1025100048E04E0D0FED1AE52A2D6D2D8E2D2ADA8D
:10252000F3948AE0E80EF2CF4AE0BE016F5F7F4F7E
:102530002AE0F29EC00111240E940AE067E47BE0D9
:10254000CE0101960E94EEDF1AEF1D0D86E6F82EF1
:10255000FC0CA12CB12C9FEDC92E9AE5D92EEE24AE
:10256000E39401E022E0412F6F2D8CEB91E00E947B
:102570006B0A22E0412F6F2DCE0101960E946B0A5B
:102580000F900F900F900F900F90DF91CF911F91B0
:102590000F91FF90EF90DF90CF90BF90AF90089594
:1025A0008F929F92AF92BF92CF92DF92EF92FF9263
:1025B0000F931F93CF93DF93CDB7DEB72A970FB654
:1025C000F894DEBF0FBECDBFE0919E0CF0919F0C42
:1025D000E217F307C1F16801F62E182F30939F0C14
:1025E00020939E0CCA01821B930B6CE370E00E9447
:1025F000A9DF77279E012F5F3F4F49018A3038F4CA
:102600009F938F937F936F9389EE91E006C09F9382
:102610008F937F936F938EE896E09F938F939F9213
:102620008F920E9423E00FB6F894DEBF0FBECDBF9D
:10263000A12CB12CEE24E39401E021E04F2D612F79
:10264000C4010E946B0A2A960FB6F894DEBF0FBE33
:10265000CDBFDF91CF911F910F91FF90EF90DF9051
:10266000CF90BF90AF909F908F9008956F927F9280
:102670008F929F92AF92BF92CF92DF92EF92FF9292
:102680000F931F93CF933C014B01C42F8091A20C59
:1026900000E010E023E88111A6C040EB60E080E993
:1026A00069D9C230B1F0C33051F1C13009F052C024
:1026B000A12CB12C9FEDC92E9AE5D92E22E0E22E55
:1026C00002E022E049E166E980EF91E00E946B0AB6
:1026D0003AC0A12CB12C8FEDC82E8AE5D82EEE245D
:1026E000E39401E021E04DE361E982EF91E00E9493
:1026F0006B0A21E04DE361EA85EF91E029C0A12C4E
:10270000B12CCFEDCC2ECAE5DC2E12E0E12E02E09A
:1027100022E049E166E980EF91E00E946B0AEE2435
:10272000E39401E021E04DE361E982EF91E00E9452
:102730006B0A21E04DE361EA85EF91E00E946B0AAC
:1027400002E0E02E02E022E04DE467E983EF91E051
:102750000E946B0AA12CB12CFFEDCF2EFAE5DF2EE3
:10276000A2E0EA2E01E021E045E064E9C3010E9415
:102770006B0A21E04DE664E9C4010E946B0ABFEDDB
:10278000EB2EBAE5FB2E00E022E840E961E080E9AB
:102790001CD821E04EEA61E080E917D822E84EEA31
:1027A00061E08EEA12D822E84EEA62E880E90DD8AC
:1027B0002AE14EEA6AE180E908D824E34EEA64E3BC
:1027C00080E903D82EE44EEA6EE480E90E94E50B2E
:1027D00028E64EEA68E680E90E94E50B2EE44FE920
:1027E00064E38FE9ABC040E260E080E0C3D8C23070
:1027F000B1F0C33051F1C13009F052C0A12CB12C5D
:102800007FEDC72E7AE5D72EE2E0EE2E02E022E041
:1028100049E166E080EF91E00E946B0A3AC0A12C8A
:10282000B12C6FEDC62E6AE5D62EEE24E39401E0BE
:1028300021E04DE361E082EF91E00E946B0A21E02C
:102840004DE361E185EF91E029C0A12CB12C3FED72
:10285000C32E3AE5D32E42E0E42E02E022E049E125
:1028600066E080EF91E00E946B0AEE24E39401E0C1
:1028700021E04DE361E082EF91E00E946B0A21E0EC
:102880004DE361E185EF91E00E946B0A52E0E52E95
:1028900002E022E04DE467E083EF91E00E946B0AE2
:1028A000A12CB12C8FEDC82E8AE5D82E92E0E92E0E
:1028B00001E021E045E063E0C3010E946B0A21E0F2
:1028C0004DE663E0C4010E946B0A2FEDE22E2AE57B
:1028D000F22E00E022E840E061E080E00E94E50B9B
:1028E00021E04EE161E080E00E94E50B22E84EE14C
:1028F00061E08EE10E94E50B22E84EE162E880E0B3
:102900000E94E50B2AE14EE16AE180E00E94E50BBE
:1029100024E34EE164E380E00E94E50B2EE44EE107
:102920006EE480E00E94E50B28E64EE168E680E078
:102930000E94E50B2EE44FE064E38FE00E94E50B7C
:10294000CF911F910F91FF90EF90DF90CF90BF90AC
:10295000AF909F908F907F906F9008958F929F92ED
:10296000AF92BF92CF92DF92EF92FF920F931F939D
:10297000CF93DF93CDB7DEB76E970FB6F894DEBF77
:102980000FBECDBF4C01F62E142F80E090E00E94C8
:10299000970B6091A10C6C5CA12CB12CCC24CA9437
:1029A000DC2CEE24E39401E022E042E088EF91E0A9
:1029B0000E946B0A6091A10C6B5F2FEDC22E2AE57D
:1029C000D22E22E043E28DEF91E00E946B0A6091EB
:1029D000A10C625ECC24CA94DC2C43E0E42E02E01D
:1029E00022E046E4C4010E946B0A1123C9F04AE0C8
:1029F000BE016F5F7F4F8F2D90E00E9400E06091DD
:102A0000A10C685D84E1189F600D11248FEDC82E24
:102A10008AE5D82E22E046E4CE0101960E946B0A98
:102A200043E06EE67CE08CE092E020DE6E960FB62E
:102A3000F894DEBF0FBECDBFDF91CF911F910F91F4
:102A4000FF90EF90DF90CF90BF90AF909F908F90CE
:102A50000895AF92BF92CF92DF92EF920F93CF93F0
:102A6000C82F80E090E00E94970BCC2311F1C13079
:102A700009F04CC06091A10C665DA12CB12CCC2456
:102A8000CA94DC2CEE24E39401E022E042E08CE3E3
:102A900092E00E946B0A6091A10C6B5F4FEDC42E17
:102AA0004AE5D42E22E043E284E492E00E946B0ADD
:102AB0002DC06091A10C6B5FA12CB12CCC24CA94C9
:102AC000DC2CEE24E39401E022E042E081E192E09C
:102AD0000E946B0A6091A10C6B5F22E04FE08CE1D9
:102AE00092E00E946B0A6091A10C6B5F7FEDC72E94
:102AF0007AE5D72E22E048E286E292E00E946B0A55
:102B000043E06EE67CE087E392E005C043E06EE6DA
:102B10007CE08CE092E0AADD6091A10C625EA12CC9
:102B2000B12C8FEDC82E8AE5D82E93E0E92E02E075
:102B300022E046E484E592E00E946B0A6091A10CD9
:102B4000645C22E046E484E592E00E946B0A6091B6
:102B5000A10C665ACC24CA94DC2C22E046E484E51D
:102B600092E00E946B0ACF910F91EF90DF90CF908F
:102B7000BF90AF9008952F923F924F925F926F92C5
:102B80007F928F929F92AF92BF92CF92DF92EF92FD
:102B9000FF920F931F93CF93DF93CDB7DEB7E297EA
:102BA0000FB6F894DEBF0FBECDBF98AB8FA77AAB40
:102BB00069AB19012A01C9A6DAA6EBA6FCA60DA7E6
:102BC0001EA7340145018091A20C882319F0F090D2
:102BD000090101C0F12C2F968FAD2F9781116EC086
:102BE00080E090E00E94970B61E06F0DA12CB12C6A
:102BF0007FEDC72E7AE5D72EEE24E39401E022E0A4
:102C000042E086E592E00E946B0A4AE0BE016F5FF7
:102C10007F4F8FA598A90E9400E061E46F0DCC243E
:102C2000CA94DC2C22E042E0CE0101960E946B0A9D
:102C300064E66F0D22E042E089A99AA90E946B0A1E
:102C4000E12C9401830149A55AA56BA57CA58DA50E
:102C50009EA535DB2B962CAD3DAD4EAD5FAD2B97D4
:102C6000C201B101FDD940E06EE572E08FEB91E069
:102C7000FDDC2E968FAD2E97811144C08091A20C61
:102C800081110BC04FEDC42E4AE5D42E52E0E52E43
:102C900001E021E043E564E90CC0A12CB12C2FED4B
:102CA000C22E2AE5D22E32E0E32E01E021E043E5F8
:102CB00064E083E692E00E946B0A24C0EE24E39471
:102CC0009401830149A55AA56BA57CA58DA59EA558
:102CD000F6DA69E16F0DA12CB12CCC24CA94DC2C5E
:102CE00094E0E92E04E022E045E28DEB91E00E94C1
:102CF0006B0A2B962CAD3DAD4EAD5FAD2B97C2014F
:102D0000B101AED92D966FAD2D972C968FAD2C9726
:102D100064DBE2960FB6F894DEBF0FBECDBFDF9145
:102D2000CF911F910F91FF90EF90DF90CF90BF90C8
:102D3000AF909F908F907F906F905F904F903F905B
:102D40002F9008952F923F924F925F926F927F92B1
:102D50008F929F92AF92BF92CF92DF92EF92FF92AB
:102D60000F931F93CF93DF93CDB7DEB727970FB69F
:102D7000F894DEBF0FBECDBF29013A01C982DA82C5
:102D8000EB82FC820D831E832C8D2F832D8C3E8C39
:102D9000CF8CF8A0D9A04AA1411132C01F9241E0C6
:102DA0004F93DF92FF92CF923F922F922F93C98041
:102DB000DA80EB80FC800D811E81A301920168E620
:102DC00072E0D9DE0FB6F894DEBF0FBECDBF2796F6
:102DD0000FB6F894DEBF0FBECDBFDF91CF911F912C
:102DE0000F91FF90EF90DF90CF90BF90AF909F90AA
:102DF0008F907F906F905F904F903F902F900895AD
:102E0000EE24E3949501840149815A816B817C8190
:102E10008D819E8154DA7F81272F322D432D5C2DA9
:102E2000C301B2011DD96D2D8F2D27960FB6F894D1
:102E3000DEBF0FBECDBFDF91CF911F910F91FF90ED
:102E4000EF90DF90CF90BF90AF909F908F907F904A
:102E50006F905F904F903F902F90BFCAAF92BF92FC
:102E6000CF92DF92EF920F93CF93DF93C82FD62F9D
:102E700080E090E00E94970BC33009F425C108F070
:102E800050C0C13009F499C0C23009F0AEC16091A0
:102E9000A10C675EA12CB12CCC24CA94DC2CEE24AE
:102EA000E39401E022E042E08FEA92E00E946B0AA4
:102EB0006091A10C6E5F22E044E18BEB92E00E94F6
:102EC0006B0A6091A10C6B5AEFEDCE2EEAE5DE2E77
:102ED00022E044E182E892E00E946B0A6091A10C3A
:102EE0006E5F22E048E285EC92E00E946B0A6091FE
:102EF000A10C6E5F22E04CE38FEC92E00E946B0A23
:102F00006091A10C6E5F22E040E586ED92E00E94A8
:102F10006B0A6091A10C6E5F22E044E68EED92E0B8
:102F200054C1C43009F411C1C53009F05EC16091CB
:102F3000A10C675EA12CB12CCC24CA94DC2CEE240D
:102F4000E39401E022E042E088E593E00E946B0A0E
:102F50006091A10C6E5F22E044E184E693E00E9460
:102F60006B0A6091A10C6E5F9FEDC92E9AE5D92E78
:102F700022E048E28CE693E00E946B0A6091A10C8B
:102F80006E5F22E04CE384E793E00E946B0A60915D
:102F9000A10C6E5F22E040E58DE793E00E946B0A92
:102FA0006091A10C6E5F22E044E685E893E00E9408
:102FB0006B0A43E06BEA72E00DC16091A10C675EA1
:102FC000A12CB12CCC24CA94DC2CEE24E39401E097
:102FD00022E042E08CE692E00E946B0A6091A10C34
:102FE0006E5FD230D1F4CFEDCC2ECAE5DC2E22E0DC
:102FF00044E188E792E00E946B0A6091A10C6B5A51
:1030000022E044E182E892E00E946B0A6091A10C08
:103010006E5FCC24CA94DC2C1EC0A12CB12CCC2415
:10302000CA94DC2CEE24E39401E022E044E188E73A
:1030300092E00E946B0A6091A10C6B5ABFEDCB2EFF
:10304000BAE5DB2E22E044E182E892E00E946B0ABE
:103050006091A10C6E5F22E048E286E892E00E9457
:103060006B0A6091A10C6E5FA12CB12CFFEDCF2EED
:10307000FAE5DF2EEE24E39401E022E04CE38BE856
:1030800092E00E946B0A6091A10C6B5A22E04CE323
:1030900082E892E00E946B0A6091A10C6E5F22E0D0
:1030A00040E585E992E00E946B0A6091A10C6E5F99
:1030B00022E044E68DE992E00E946B0A43E066EA72
:1030C00072E08BEA92E088C06091A10C675EA12C4F
:1030D000B12CCC24CA94DC2CEE24E39401E022E051
:1030E00042E089EE92E00E946B0A6091A10C6E5F53
:1030F00022E044E185EF92E00E946B0A6091A10C0E
:103100006E5F5FEDC52E5AE5D52E22E048E28CEFCA
:1031100092E00E946B0A6091A10C6E5F22E04CE38A
:1031200083E093E00E946B0A6091A10C6E5F22E045
:1031300040E58BE093E00E946B0A6091A10C6E5F0A
:1031400022E044E684E193E040C06091A10C675E18
:10315000A12CB12CCC24CA94DC2CEE24E39401E005
:1031600022E042E08DE193E00E946B0A6091A10CA5
:103170006E5F22E044E189E293E00E946B0A609175
:10318000A10C6E5F3FEDC32E3AE5D32E22E048E25C
:1031900083E393E00E946B0A6091A10C6E5F22E0D2
:1031A0004CE38DE393E00E946B0A6091A10C6E5F8B
:1031B00022E040E586E493E00E946B0A6091A10C56
:1031C0006E5F22E044E68FE493E00E946B0A43E0E6
:1031D00066EA72E084EE92E0DF91CF910F91EF907A
:1031E000DF90CF90BF90AF9041CADF91CF910F9108
:1031F000EF90DF90CF90BF90AF900895AF92BF92C5
:10320000CF92DF92EF92FF920F931F93CF93DF93B2
:10321000162FD42FC22F6091A10C6B5AA12CB12C68
:103220004FEDC42E4AE5D42EEE24E39401E022E0D3
:1032300048E20E946B0A6091A10C6B5A112329F09D
:1032400022E04CE38FE893E00DC0A12CB12C3FEDC0
:10325000C32E3AE5D32EEE24E39401E022E04CE3C2
:1032600082E892E00E946B0A4091A10C4B5A6D2FAC
:10327000DD0F770B880B990B2FEDE22E2AE5F22E4E
:1032800007E41BE020E50E94760E4091A10C4B5A0A
:103290006C2F70E080E090E009E918E024E60E94DD
:1032A000760EDF91CF911F910F91FF90EF90DF90FD
:1032B000CF90BF90AF9008954F925F926F927F92A0
:1032C0008F929F92AF92BF92CF92DF92EF92FF9236
:1032D0000F931F93CF93DF9300D000D01F92CDB7F1
:1032E000DEB729833A834B835C832701380145018C
:1032F00056012091A10C2D830E9472DE2D812B5A44
:103300002D830E9489DC2FEDE22E2AE5F22E03E9BF
:1033100013E028E24D810E94760E4091A10C445B9F
:103320003FEDC32E3AE5D32E55EDE52E5AE0F52EAE
:1033300001E02CE369817A818B819C810E945C0F82
:103340008091A10C8983C301B2010E9472DE2981A0
:103350002B5A29830E9489DCEFEDEE2EEAE5FE2E42
:1033600003E913E020E549810E94760E4091A10C0B
:10337000445BF5EDEF2EFAE0FF2E01E024E6C501F7
:10338000B4010E945C0F0F900F900F900F900F9060
:10339000DF91CF911F910F91FF90EF90DF90CF9031
:1033A000BF90AF909F908F907F906F905F904F9065
:1033B00008954F925F926F927F928F929F92AF92F9
:1033C000BF92CF92DF92EF92FF920F931F93CF9312
:1033D000DF93CDB7DEB728970FB6F894DEBF0FBEE8
:1033E000CDBF29833A834B835C83102F260137019D
:1033F0008D829E82AF82B8864091A10C445B3FEDE6
:10340000C32E3AE5D32E53ECE52E57E0F52E01E01E
:1034100024E10E945C0F4091A10C445B28E2698189
:103420007A818B819C810E945C0F6091A10C6B5A08
:10343000A12CB12C112339F0EE24E39422E04CE3CB
:103440008FE893E00BC02FEDC22E2AE5D22EEE249A
:10345000E39401E022E04CE382E892E00E946B0AF0
:103460004091A10C445B8FEDC82E8AE5D82E9DE8D3
:10347000E92E9AE0F92E01E020E5C301B2010E9495
:103480005C0F4091A10C445B24E66D817E818F81AD
:1034900098850E945C0F28960FB6F894DEBF0FBE89
:1034A000CDBFDF91CF911F910F91FF90EF90DF90F3
:1034B000CF90BF90AF909F908F907F906F905F90D4
:1034C0004F9008953F924F925F926F927F928F92AA
:1034D0009F92AF92BF92CF92DF92EF92FF920F93A3
:1034E0001F93CF93DF9300D000D0CDB7DEB7342E3B
:1034F000922E27013801A982BA82CB82DC825B013D
:10350000C12CD12C4091A10C4B5A5FEDE52E5AE510
:10351000F52E882319F009E918E002C006E913E046
:1035200024E1C601B5010E94760E692D70E080E0AD
:1035300090E04091A10C4B5A3FEDE32E3AE5F32E7B
:10354000332019F005ED1AE002C009E918E028E27D
:103550000E94760E4091A10C445B8FEDC82E8AE547
:10356000D82E98E9E92E93E0F92E01E02CE3C3016F
:10357000B2010E945C0F4091A10C445B20E569817F
:103580007A818B819C810E945C0F4091A10C4B5AE7
:10359000682D70E080E090E02FEDE22E2AE5F22E1B
:1035A00007E41BE024E60E94760E0F900F900F9028
:1035B0000F90DF91CF911F910F91FF90EF90DF90CF
:1035C000CF90BF90AF909F908F907F906F905F90C3
:1035D0004F903F9008954F925F926F927F92AF927B
:1035E000BF92CF92DF92EF92FF920F931F93CF93F0
:1035F000DF9300D000D01F92CDB7DEB729833A8386
:103600004B835C830D83260137014091A10C445B01
:103610002FEDC22E2AE5D22E3DE8E32E3AE0F32E1E
:1036200003E024E10E945C0F4091A10C445B01E0A7
:1036300028E269817A818B819C810E945C0F409194
:10364000A10C4B5A2D81622F70E080E090E05FED7D
:10365000E52E5AE5F52E04E419E02CE30E94760EDF
:103660004091A10C445B68E3E62E64E0F62E01E095
:1036700020E5C301B2010E945C0F6091A10C6B5A5E
:10368000AA2049F0A12CB12CEE24E39422E044E6D8
:103690008FE893E00DC0A12CB12C8FEDC82E8AE5E8
:1036A000D82EEE24E39401E022E044E682E892E0A2
:1036B0000E946B0A0F900F900F900F900F90DF9168
:1036C000CF911F910F91FF90EF90DF90CF90BF901F
:1036D000AF907F906F905F904F900895AF92BF92A0
:1036E000CF92DF92EF920F93683009F08CC0833055
:1036F00009F457C0F0F48130D9F1823009F026C1C5
:103700006091A10C6E5FA12CB12C5FEDC52E5AE526
:10371000D52EEE24E39401E022E044E188E792E034
:103720000E946B0A6091A10C6E5FCC24CA94DC2CC1
:10373000C3C0843009F44EC0853009F007C16091E0
:10374000A10C6E5FA12CB12CBFEDCB2EBAE5DB2E08
:10375000EE24E39401E022E040E585E992E00E9456
:103760006B0A6091A10C6E5FCC24CA94DC2CE3C080
:103770006091A10C6E5FA12CB12CEFEDCE2EEAE58D
:10378000DE2EEE24E39401E022E044E68DE992E0AF
:103790000E946B0A6091A10C6E5FCC24CA94DC2C51
:1037A000CFC06091A10C6E5FA12CB12C3FEDC32E58
:1037B0003AE5D32EEE24E39401E022E048E286E8E5
:1037C00092E00E946B0A6091A10C6E5FCC24CA94B7
:1037D000DC2C77C06091A10C6E5FA12CB12C9FED09
:1037E000C92E9AE5D92EEE24E39401E022E04CE3C1
:1037F0008BE892E00E946B0A6091A10C6E5FCC2472
:10380000CA94DC2C7BC0833009F460C0F0F48130B2
:10381000D9F1823009F09AC06091A10C6E5FA12CA1
:10382000B12CCC24CA94DC2CEE24E39401E022E0F9
:1038300048E286E892E00E946B0A6091A10C6E5FFC
:10384000EFEDCE2EEAE5DE2E3CC0843009F45BC0FD
:10385000853009F07BC06091A10C6E5FA12CB12C6A
:10386000CC24CA94DC2CEE24E39401E022E044E66C
:103870008DE992E00E946B0A6091A10C6E5F9FED52
:10388000C92E9AE5D92E5CC06091A10C6E5FA12C67
:10389000B12CCC24CA94DC2CEE24E39401E022E089
:1038A00044E188E792E00E946B0A6091A10C6E5F90
:1038B000AFEDCA2EAAE5DA2E22E048E286E892E0D1
:1038C00043C022E04CE38BE892E03EC06091A10C43
:1038D0006E5FA12CB12CCC24CA94DC2CEE24E39492
:1038E00001E022E04CE38BE892E00E946B0A6091D9
:1038F000A10C6E5F5FEDC52E5AE5D52E22E040E5A6
:1039000085E992E021C06091A10C6E5FA12CB12CE1
:10391000CC24CA94DC2CEE24E39401E022E040E5C0
:1039200085E992E00E946B0A6091A10C6E5F3FED09
:10393000C32E3AE5D32E22E044E68DE992E004C09E
:1039400022E044E188E792E00E946B0A0F91EF9039
:10395000DF90CF90BF90AF900895AF92BF92CF927B
:10396000DF92EF920F93683009F08CC0833009F436
:1039700057C0F0F48130D9F1823009F026C160914E
:10398000A10C6E5FA12CB12C5FEDC52E5AE5D52E92
:10399000EE24E39401E022E044E18BEB92E00E940C
:1039A0006B0A6091A10C6E5FCC24CA94DC2CC3C05E
:1039B000843009F44EC0853009F007C16091A10C34
:1039C0006E5FA12CB12CBFEDCB2EBAE5DB2EEE2421
:1039D000E39401E022E040E586ED92E00E946B0A6C
:1039E0006091A10C6E5FCC24CA94DC2CE3C0609182
:1039F000A10C6E5FA12CB12CEFEDCE2EEAE5DE2EF0
:103A0000EE24E39401E022E044E68EED92E00E9491
:103A10006B0A6091A10C6E5FCC24CA94DC2CCFC0E1
:103A20006091A10C6E5FA12CB12C3FEDC32E3AE545
:103A3000D32EEE24E39401E022E048E285EC92E00C
:103A40000E946B0A6091A10C6E5FCC24CA94DC2C9E
:103A500077C06091A10C6E5FA12CB12C9FEDC92E97
:103A60009AE5D92EEE24E39401E022E04CE38FECBA
:103A700092E00E946B0A6091A10C6E5FCC24CA9404
:103A8000DC2C7BC0833009F460C0F0F48130D9F1C4
:103A9000823009F09AC06091A10C6E5FA12CB12C0C
:103AA000CC24CA94DC2CEE24E39401E022E048E22A
:103AB00085EC92E00E946B0A6091A10C6E5FEFEDC5
:103AC000CE2EEAE5DE2E3CC0843009F45BC08530A2
:103AD00009F07BC06091A10C6E5FA12CB12CCC24AD
:103AE000CA94DC2CEE24E39401E022E044E68EED5F
:103AF00092E00E946B0A6091A10C6E5F9FEDC92E4F
:103B00009AE5D92E5CC06091A10C6E5FA12CB12CFE
:103B1000CC24CA94DC2CEE24E39401E022E044E1BE
:103B20008BEB92E00E946B0A6091A10C6E5FAFED8F
:103B3000CA2EAAE5DA2E22E048E285EC92E043C0E4
:103B400022E04CE38FEC92E03EC06091A10C6E5FEE
:103B5000A12CB12CCC24CA94DC2CEE24E39401E0FB
:103B600022E04CE38FEC92E00E946B0A6091A10C82
:103B70006E5F5FEDC52E5AE5D52E22E040E586ED5D
:103B800092E021C06091A10C6E5FA12CB12CCC24DD
:103B9000CA94DC2CEE24E39401E022E040E586EDBB
:103BA00092E00E946B0A6091A10C6E5F3FEDC32E04
:103BB0003AE5D32E22E044E68EED92E004C022E006
:103BC00044E18BEB92E00E946B0A0F91EF90DF9043
:103BD000CF90BF90AF900895AF92BF92CF92DF92F7
:103BE000EF920F93683009F08CC0833009F457C00E
:103BF000F0F48130D9F1823009F026C16091A10C36
:103C00006E5FA12CB12C5FEDC52E5AE5D52EEE24AA
:103C1000E39401E022E044E185EF92E00E946B0A28
:103C20006091A10C6E5FCC24CA94DC2CC3C084309C
:103C300009F44EC0853009F007C16091A10C6E5F98
:103C4000A12CB12CBFEDCB2EBAE5DB2EEE24E394F4
:103C500001E022E040E58BE093E00E946B0A609176
:103C6000A10C6E5FCC24CA94DC2CE3C06091A10C43
:103C70006E5FA12CB12CEFEDCE2EEAE5DE2EEE2408
:103C8000E39401E022E044E684E193E00E946B0AC1
:103C90006091A10C6E5FCC24CA94DC2CCFC06091E3
:103CA000A10C6E5FA12CB12C3FEDC32E3AE5D32EB3
:103CB000EE24E39401E022E048E28CEF92E00E94DF
:103CC0006B0A6091A10C6E5FCC24CA94DC2C77C087
:103CD0006091A10C6E5FA12CB12C9FEDC92E9AE5CD
:103CE000D92EEE24E39401E022E04CE383E093E05C
:103CF0000E946B0A6091A10C6E5FCC24CA94DC2CEC
:103D00007BC0833009F460C0F0F48130D9F1823097
:103D100009F09AC06091A10C6E5FA12CB12CCC244B
:103D2000CA94DC2CEE24E39401E022E048E28CEF1C
:103D300092E00E946B0A6091A10C6E5FEFEDCE2EB7
:103D4000EAE5DE2E3CC0843009F45BC0853009F022
:103D50007BC06091A10C6E5FA12CB12CCC24CA94C5
:103D6000DC2CEE24E39401E022E044E684E193E0DD
:103D70000E946B0A6091A10C6E5F9FEDC92E9AE5BF
:103D8000D92E5CC06091A10C6E5FA12CB12CCC240B
:103D9000CA94DC2CEE24E39401E022E044E185EFB8
:103DA00092E00E946B0A6091A10C6E5FAFEDCA2E8B
:103DB000AAE5DA2E22E048E28CEF92E043C022E04E
:103DC0004CE383E093E03EC06091A10C6E5FA12CB8
:103DD000B12CCC24CA94DC2CEE24E39401E022E044
:103DE0004CE383E093E00E946B0A6091A10C6E5F4C
:103DF0005FEDC52E5AE5D52E22E040E58BE093E03D
:103E000021C06091A10C6E5FA12CB12CCC24CA946E
:103E1000DC2CEE24E39401E022E040E58BE093E02B
:103E20000E946B0A6091A10C6E5F3FEDC32E3AE5D4
:103E3000D32E22E044E684E193E004C022E044E192
:103E400085EF92E00E946B0A0F91EF90DF90CF9088
:103E5000BF90AF900895AF92BF92CF92DF92EF9252
:103E60000F93683009F08CC0833009F457C0F0F428
:103E70008130D9F1823009F026C16091A10C6E5FCA
:103E8000A12CB12C5FEDC52E5AE5D52EEE24E3947E
:103E900001E022E044E189E293E00E946B0A609134
:103EA000A10C6E5FCC24CA94DC2CC3C0843009F40E
:103EB0004EC0853009F007C16091A10C6E5FA12C46
:103EC000B12CBFEDCB2EBAE5DB2EEE24E39401E05E
:103ED00022E040E586E493E00E946B0A6091A10C29
:103EE0006E5FCC24CA94DC2CE3C06091A10C6E5FA1
:103EF000A12CB12CEFEDCE2EEAE5DE2EEE24E394DC
:103F000001E022E044E68FE493E00E946B0A6091B6
:103F1000A10C6E5FCC24CA94DC2CCFC06091A10CA4
:103F20006E5FA12CB12C3FEDC32E3AE5D32EEE24CB
:103F3000E39401E022E048E283E393E00E946B0A0D
:103F40006091A10C6E5FCC24CA94DC2C77C0609188
:103F5000A10C6E5FA12CB12C9FEDC92E9AE5D92E34
:103F6000EE24E39401E022E04CE38DE393E00E9431
:103F70006B0A6091A10C6E5FCC24CA94DC2C7BC0D0
:103F8000833009F460C0F0F48130D9F1823009F057
:103F90009AC06091A10C6E5FA12CB12CCC24CA9464
:103FA000DC2CEE24E39401E022E048E283E393E09A
:103FB0000E946B0A6091A10C6E5FEFEDCE2EEAE5D8
:103FC000DE2E3CC0843009F45BC0853009F07BC034
:103FD0006091A10C6E5FA12CB12CCC24CA94DC2C76
:103FE000EE24E39401E022E044E68FE493E00E94B3
:103FF0006B0A6091A10C6E5F9FEDC92E9AE5D92ED8
:104000005CC06091A10C6E5FA12CB12CCC24CA9431
:10401000DC2CEE24E39401E022E044E189E293E029
:104020000E946B0A6091A10C6E5FAFEDCA2EAAE5EB
:10403000DA2E22E048E283E393E043C022E04CE33F
:104040008DE393E03EC06091A10C6E5FA12CB12C7A
:10405000CC24CA94DC2CEE24E39401E022E04CE36F
:104060008DE393E00E946B0A6091A10C6E5F5FED9F
:10407000C52E5AE5D52E22E040E586E493E021C026
:104080006091A10C6E5FA12CB12CCC24CA94DC2CC5
:10409000EE24E39401E022E040E586E493E00E9410
:1040A0006B0A6091A10C6E5F3FEDC32E3AE5D32EF3
:1040B00022E044E68FE493E004C022E044E189E298
:1040C00093E00E946B0A0F91EF90DF90CF90BF902A
:1040D000AF900895AF92BF92CF92DF92EF920F937D
:1040E000683009F08CC0833009F457C0F0F4813097
:1040F000D9F1823009F026C16091A10C6E5FA12C2C
:10410000B12C5FEDC52E5AE5D52EEE24E39401E0E7
:1041100022E044E184E693E00E946B0A6091A10CE6
:104120006E5FCC24CA94DC2CC3C0843009F44EC02A
:10413000853009F007C16091A10C6E5FA12CB12CF4
:10414000BFEDCB2EBAE5DB2EEE24E39401E022E0B6
:1041500040E58DE793E00E946B0A6091A10C6E5FD1
:10416000CC24CA94DC2CE3C06091A10C6E5FA12C1E
:10417000B12CEFEDCE2EEAE5DE2EEE24E39401E045
:1041800022E044E685E893E00E946B0A6091A10C6E
:104190006E5FCC24CA94DC2CCFC06091A10C6E5F02
:1041A000A12CB12C3FEDC32E3AE5D32EEE24E3949F
:1041B00001E022E048E28CE693E00E946B0A609105
:1041C000A10C6E5FCC24CA94DC2C77C06091A10C4A
:1041D0006E5FA12CB12C9FEDC92E9AE5D92EEE244D
:1041E000E39401E022E04CE384E793E00E946B0A51
:1041F0006091A10C6E5FCC24CA94DC2C7BC0833010
:1042000009F460C0F0F48130D9F1823009F09AC02D
:104210006091A10C6E5FA12CB12CCC24CA94DC2C33
:10422000EE24E39401E022E048E28CE693E00E9471
:104230006B0A6091A10C6E5FEFEDCE2EEAE5DE2EEB
:104240003CC0843009F45BC0853009F07BC06091CC
:10425000A10C6E5FA12CB12CCC24CA94DC2CEE24D2
:10426000E39401E022E044E685E893E00E946B0AD3
:104270006091A10C6E5F9FEDC92E9AE5D92E5CC0AE
:104280006091A10C6E5FA12CB12CCC24CA94DC2CC3
:10429000EE24E39401E022E044E184E693E00E940E
:1042A0006B0A6091A10C6E5FAFEDCA2EAAE5DA2E03
:1042B00022E048E28CE693E043C022E04CE384E74E
:1042C00093E03EC06091A10C6E5FA12CB12CCC2478
:1042D000CA94DC2CEE24E39401E022E04CE384E772
:1042E00093E00E946B0A6091A10C6E5F5FEDC52E9A
:1042F0005AE5D52E22E040E58DE793E021C060919C
:10430000A10C6E5FA12CB12CCC24CA94DC2CEE2421
:10431000E39401E022E040E58DE793E00E946B0A20
:104320006091A10C6E5F3FEDC32E3AE5D32E22E0E3
:1043300044E685E893E004C022E044E184E693E0AB
:104340000E946B0A0F91EF90DF90CF90BF90AF90DB
:104350000895AF92BF92CF92DF92EF92FF920F93A8
:104360001F93CF93DF93CDB7DEB76E970FB6F89458
:10437000DEBF0FBECDBFF62E142F211103C00E9449
:10438000AE142AC06091A10C625EA12CB12CCC2489
:10439000CA94DC2C33E0E32E02E022E046E40E94E3
:1043A0006B0A1123C9F04AE0BE016F5F7F4F8F2D6A
:1043B00090E00E9400E06091A10C685D84E1189F8C
:1043C000600D11248FEDC82E8AE5D82E22E046E438
:1043D000CE0101960E946B0A6E960FB6F894DEBF6E
:1043E0000FBECDBFDF91CF911F910F91FF90EF9046
:1043F000DF90CF90BF90AF9008952F923F924F9251
:104400005F926F927F928F929F92AF92BF92CF9264
:10441000DF92EF92FF920F931F93CF93DF93CDB76D
:10442000DEB7E2970FB6F894DEBF0FBECDBF98ABF4
:104430008FA77AAB69AB19012A01C9A6DAA6EBA648
:10444000FCA60DA71EA7340145012E968FAD2E9711
:10445000811135C080E090E00E94970B6091A10C23
:104460006F5FA12CB12C8FEDC82E8AE5D82EEE24DB
:10447000E39401E022E042E086E592E00E946B0ACC
:104480004AE0BE016F5F7F4F8FA598A90E9400E0B0
:104490006091A10C6F5BCC24CA94DC2C22E042E03A
:1044A000CE0101960E946B0A6091A10C6C5922E02A
:1044B00042E089A99AA90E946B0AE12C02C0EE246D
:1044C000E3949401830149A55AA56BA57CA58DA50C
:1044D0009EA50E945F112B962CAD3DAD4EAD5FADFC
:1044E0002B97C201B1010E9430104FEF6AE973E0CF
:1044F0008FE993E00E9436132D966FAD2D972C9681
:104500008FAD2C970E94ED11E2960FB6F894DEBFA6
:104510000FBECDBFDF91CF911F910F91FF90EF9014
:10452000DF90CF90BF90AF909F908F907F906F90D3
:104530005F904F903F902F900895AF92BF92CF928F
:10454000DF92EF920F931F93CF93DF93CDB7DEB738
:104550006E970FB6F894DEBF0FBECDBF962F142F07
:10456000222371F1213009F0A6C0823089F0833016
:10457000D9F0813009F0D6C04AE0BE016F5F7F4FAD
:10458000892F90E00E9400E06091A10C625E50C013
:104590004AE0BE016F5F7F4F892F90E00E9400E0EC
:1045A0006091A10C645C69C04AE0BE016F5F7F4FFF
:1045B000892F90E00E9400E06091A10C665A13C020
:1045C000823059F1833009F44DC0813009F0AAC01E
:1045D0004AE0BE016F5F7F4F892F90E00E9400E0AC
:1045E0006091A10C625EA12CB12CCC24CA94DC2C6D
:1045F000F3E0EF2E02E022E046E4CE0101960E94B5
:104600006B0A4AE0BE016F5F7F4F812F90E00E94EE
:1046100000E06091A10C645C49C04AE0BE016F5F9C
:104620007F4F892F90E00E9400E06091A10C645CB4
:10463000A12CB12CCC24CA94DC2C73E0E72E02E030
:1046400022E046E4CE0101960E946B0A4AE0BE01D8
:104650006F5F7F4F812F90E00E9400E06091A10C7E
:10466000665A24C04AE0BE016F5F7F4F892F90E0F9
:104670000E9400E06091A10C665AA12CB12CCC24C0
:10468000CA94DC2C43E0E42E02E022E046E4CE01B2
:1046900001960E946B0A4AE0BE016F5F7F4F812F37
:1046A00090E00E9400E06091A10C625E2FEDC22EAE
:1046B0002AE5D22E31C0823081F08330D1F08130B2
:1046C00089F54AE0BE016F5F7F4F892F90E00E941D
:1046D00000E06091A10C625E17C04AE0BE016F5F0E
:1046E0007F4F892F90E00E9400E06091A10C645CF4
:1046F0000BC04AE0BE016F5F7F4F892F90E00E94A0
:1047000000E06091A10C665AA12CB12CCC24CA9473
:10471000DC2C93E0E92E02E022E046E4CE01019693
:104720000E946B0A2FEF8FE995E021508040904066
:10473000E1F700C000006E960FB6F894DEBF0FBE22
:10474000CDBFDF91CF911F910F91EF90DF90CF9070
:10475000BF90AF9008952F923F924F925F926F92C9
:104760007F928F929F92AF92BF92CF92DF92EF9201
:10477000FF920F931F93CF93DF93CDB7DEB7CF5048
:10478000D1400FB6F894DEBF0FBECDBFC65FDE4F7F
:1047900099838883CA50D140CA5FDE4F798368838A
:1047A000C650D140C85FDE4F59834883C850D140BE
:1047B000C25FDE4F39832883CE50D1400596C45F57
:1047C000DE4F99838883CC50D1403B012FE1620EAC
:1047D000711CDA0111961C91412FFB01678D0E941B
:1047E000AE14FF24F394111101C0F12CC45FDE4F0D
:1047F00048805980CC50D14099249394F1E0CF5F08
:10480000DE4FF883C150D14021E0CD5FDE4F2883D9
:10481000C350D140CE0101961C010E94902D8630DC
:10482000910509F48CC144F48430910509F479C3ED
:10483000059709F45BC2F1CF8830910531F00CF493
:10484000EBC1099709F404C1E8CFCD5FDE4F988131
:10485000C350D140923009F466C0CF5FDE4FA881CB
:10486000C150D140A150CF5FDE4FA883C150D1408D
:10487000EA2F0A2E000CFF0BC65FDE4F888099805E
:10488000CA50D14025E0A202800C911C1124D40111
:104890008C918D3009F4CDC02401CA5FDE4F288190
:1048A0003981C650D140CF5FDE4F8881C150D140A1
:1048B0009EE18902200D311D1124CC5FDE4F39832A
:1048C0002883C450D1403901AFEF6A1A7A0AC85F11
:1048D000DE4F28813981C850D140E20FF31F10818B
:1048E000FF24F394111101C0F12C6091A10C625EC0
:1048F000A12CB12CCC24CA94DC2CE3E0EE2E02E0F7
:1049000022E046E48BEB91E00E946B0A21E0412F0C
:10491000CC5FDE4FA881B981C450D14011966C9113
:10492000C40117DD27C0CF5FDE4FB881C150D14031
:10493000EB2F0B2E000CFF0BCA5FDE4F8881998195
:10494000C650D1403EE1B302800D911D11249A94CE
:10495000692C092C000C770897FE02C099249394C7
:10496000680E791ED3012C912E3739F43C01BFEF2C
:104970006B1A7B0A9924939447C1C85FDE4F288144
:104980003981C850D140E20FF31F10811230A1F0DD
:10499000133011F1113089F56091A10C645CA12CE8
:1049A000B12CCC24CA94DC2C53E0E52E02E022E0AA
:1049B00046E48CEB91E01FC06091A10C605BA12CE0
:1049C000B12CCC24CA94DC2C33E0E32E02E022E0AC
:1049D00046E48DEB91E00FC06091A10C6C59A12CC5
:1049E000B12CCC24CA94DC2C93E0E92E02E022E026
:1049F00046E48EEB91E00E946B0AD3018C914AE071
:104A0000B10190E00E9400E06091A10C685DB4E10A
:104A10001B9F600D1124A12CB12CCC24CA94DC2C3A
:104A200003E0E02E02E022E046E4C1010E946B0AAE
:104A3000EBC0C45FDE4F48805980CC50D1409924F0
:104A40009394E1E0CF5FDE4FE883C150D140DCC0FA
:104A5000F11011C05F924F9284EA93E09F938F937D
:104A60003F922F920E9423E00F900F900F900F9093
:104A70000F900F9013C0F30180811F928F935F926C
:104A80004F9228ED33E03F932F933F922F920E9455
:104A900023E00FB6F894DEBF0FBECDBF2FE130E0AC
:104AA0004FEF5FEFB10183E092E00E94F50C8823A5
:104AB00051F1542D9201822F851B2901F201408171
:104AC0002F5F3F4F90E0C25FDE4FE881F981CE500B
:104AD000D140E80FF91F442311F04083ECCF10823E
:104AE000FF20F9F0D3018C914AE0B10190E00E94DF
:104AF00000E0B101C25FDE4F88819981CE50D14084
:104B00000E94EEDF0EC0412FF3016081C2010E94BE
:104B1000AE14F1E0CD5FDE4FF883C350D14081E0A9
:104B200001C080E02FEF3FEB93E0215030409040F8
:104B3000E1F700C00000811170CE81E0F3C1FF20D9
:104B400009F462C0CD5FDE4FA881C350D140A130CF
:104B500071F16091A10C625EA12CB12CCC24CA949D
:104B6000DC2CF3E0EF2E02E022E046E4C2010E94DA
:104B70006B0AF30180814AE0B10190E00E9400E0FD
:104B80006091A10C685DF4E11F9F600D1124AFEDF1
:104B9000CA2EAAE5DA2E22E046E4C1010E946B0A81
:104BA00021E0CD5FDE4F2883C350D1402DC0D3011B
:104BB0008C914AE0B10190E00E9400E06091A10C6C
:104BC000685DB4E11B9F600D1124A12CB12CCC2495
:104BD000CA94DC2C53E0E52E02E022E046E4C10159
:104BE0000E946B0A6091A10C625E7FEDC72E7AE590
:104BF000D72E22E046E4C2010E946B0AE2E0CD5FBC
:104C0000DE4FE883C350D140FFEF2FEB33E0F1508C
:104C100020403040E1F767C0FF2009F45DC0CD5F60
:104C2000DE4F8881C350D140813049F16091A10CA1
:104C3000625EA12CB12CCC24CA94DC2C43E0E42E7F
:104C400002E022E046E4C2010E946B0AD3018C918B
:104C50004AE0B10190E00E9400E06091A10C685D23
:104C6000B4E11B9F600D11245FEDC52E5AE5D52ED2
:104C700022E046E4C1010E946B0AE1E028C0D301B2
:104C80008C914AE0B10190E00E9400E06091A10C9B
:104C9000685DB4E11B9F600D1124A12CB12CCC24C4
:104CA000CA94DC2C93E0E92E02E022E046E4C10144
:104CB0000E946B0A6091A10C625E2FEDC22E2AE564
:104CC000D22E22E046E4C2010E946B0AE2E0CD5FF0
:104CD000DE4FE883C350D1409FEFAFEBB3E091507C
:104CE000A040B040E1F700C0000097CDCD5FDE4F9F
:104CF000E881C350D140E23009F486C0CF5FDE4F77
:104D0000F881C150D140FF5FCC5FDE4FF883C450C3
:104D1000D140EF2FFF0FFF0BC65FDE4F88809980D9
:104D2000CA50D140CC5FDE4F2881C450D14035E01D
:104D30002302800C911C1124D4018C918D3089F4B4
:104D4000C65FDE4F48805980CA50D140CF5FDE4FEA
:104D5000B881C150D140E5E0BE02400C511C112485
:104D600050C02401CA5FDE4F28813981C650D1402E
:104D7000CC5FDE4F8881C450D1409EE18902200D76
:104D8000311D1124CF5FDE4F39832883C150D140BC
:104D90003901AFEF6A1A7A0AC85FDE4F288139817C
:104DA000C850D140E20FF31F1081FF24F39411117A
:104DB00001C0F12C6091A10C625EA12CB12CCC241D
:104DC000CA94DC2C33E0E32E02E022E046E48BEBD5
:104DD00091E00E946B0A21E0412FCF5FDE4FA88156
:104DE000B981C150D14011966C91C401B2DACC5F47
:104DF000DE4FB881C450D140CF5FDE4FB883C15081
:104E0000D1408824839482C0CF5FDE4F2881C15077
:104E1000D140E22F022E000CFF0BCA5FDE4F8881CB
:104E20009981C650D140AEE12A02800D911D112416
:104E300088248394890C3C01680C711C87FC7A944B
:104E4000D3012C912E3739F43C01690C711C97FC6D
:104E50007A94892C5BC0C85FDE4F28813981C850A5
:104E6000D140E20FF31F10811230A1F0133011F185
:104E7000113089F56091A10C645CA12CB12CCC247B
:104E8000CA94DC2C93E0E92E02E022E046E48CEBAD
:104E900091E01FC06091A10C605BA12CB12CCC24CF
:104EA000CA94DC2C03E0E02E02E022E046E48DEB25
:104EB00091E00FC06091A10C6C59A12CB12CCC24B5
:104EC000CA94DC2CA3E0EA2E02E022E046E48EEB5A
:104ED00091E00E946B0AD3018C914AE0B10190E00D
:104EE0000E9400E06091A10C685DB4E11B9F600D21
:104EF0001124A12CB12CCC24CA94DC2CE3E0EE2E9E
:104F000002E022E046E4C1010E946B0AEFEFFFEBF2
:104F100023E0E150F0402040E1F700C00000982C71
:104F20007CCC80E0C15FDE4F0FB6F894DEBF0FBED1
:104F3000CDBFDF91CF911F910F91FF90EF90DF9048
:104F4000CF90BF90AF909F908F907F906F905F9029
:104F50004F903F902F900895DF92EF92FF920F9322
:104F60001F93CF93DF937C01D62E662339F080E028
:104F70000E94291500E0C0E010E00AC081E0F8CFEF
:104F8000D15009F03EC020E0412F602F83E0D5DAF8
:104F9000D3E0C6D5039787309105D8F78A5B9F4F3A
:104FA000FC010C94BDDFD23049F0D33061F0D13038
:104FB00081F7115008F055C019E053C0C15008F0F6
:104FC0005CC0C9E05AC0015008F060C009E05EC092
:104FD000F7011082FFEF2FED81E0F150204080407B
:104FE000E1F700C00000EAE0CE02C0011124F4E6BF
:104FF0001F02800D911D1124800F911D07FD9A95B0
:1050000055C0D23049F0D33009F4BDCFD13009F0CA
:10501000C0CF20E04C2F27C020E0402F30C0DF5F02
:10502000D4303CF4D23061F0D33069F0D13009F0A3
:10503000B0CF21E0402F612F81E07FDAD1E0A9CF0E
:1050400021E0412F1CC021E04C2F22C0D23071F052
:10505000D330C1F0D13009F09CCF1F5F1A3008F077
:1050600010E023E040E0612F81E014C081E08C0F6C
:105070008A3010F4C82F01C0C0E023E040E06C2F5C
:1050800082E008C00F5F0A3008F000E023E040E053
:10509000602F83E052DA7DCF82E004C0DD2009F486
:1050A00078CF81E0F701808380E090E0DF91CF91BD
:1050B0001F910F91FF90EF90DF900895AF92BF92F4
:1050C000CF92DF92EF920F93CF93C82F80E090E0C2
:1050D0000E94970BC23009F480C0C33009F4C5C0E8
:1050E000C13009F0E1C06091A10C6D5DA12CB12C23
:1050F000CC24CA94DC2CEE24E39401E022E042E0CC
:105100008FE094E00E946B0A6091A10C6E5FFFED4E
:10511000CF2EFAE5DF2E22E044E188E194E00E9400
:105120006B0A6091A10C6E5F22E048E28DE194E091
:105130000E946B0A6091A10C6E5F22E04CE382E258
:1051400094E00E946B0A6091A10C6E5F22E040E542
:1051500087E294E00E946B0A6091A10C6E5F22E0EE
:1051600044E68CE294E00E946B0A42E061E374E062
:105170008BEA92E00E9436138091A20C811106C046
:1051800072E0E72E21E04FE164E90CC0A12CB12CC4
:105190005FEDC52E5AE5D52E62E0E62E01E021E056
:1051A0004FE164E086E394E00E946B0A8091A20CD8
:1051B000A12CB12C3FEDC32E3AE5D32E42E0E42ED4
:1051C00001E021E042E5811102C064E901C064E030
:1051D0008AE394E00E946B0A67C06091A10C6D5D48
:1051E000A12CB12CCC24CA94DC2CEE24E39401E055
:1051F00022E042E08FE394E00E946B0A6091A10CF0
:105200006E5F2FEDC22E2AE5D22E22E044E188E423
:1052100094E00E946B0A6091A10C6E5F22E048E26C
:105220008EE494E00E946B0A6091A10C6E5F22E014
:105230004CE381E594E00E946B0A6091A10C6E5FE3
:1052400022E040E584E594E00E946B0A6091A10CA5
:105250006E5F22E044E687E594E00E946B0A42E03C
:1052600061E374E08BEA92E016C06091A10C6C5E81
:10527000A12CB12CCC24CA94DC2CEE24E39401E0C4
:1052800022E042E08BE594E00E946B0A42E06BEA88
:1052900072E081E694E0CF910F91EF90DF90CF9094
:1052A000BF90AF900C943613CF910F91EF90DF9099
:1052B000CF90BF90AF900895CF92DF92EF92FF9280
:1052C0000F93CF936B017C01C42F622F70E080E0BD
:1052D00090E00E94BCDCA70196010E94C3DD6B0137
:1052E0007C016C2F70E080E090E00E94BCDC9B01B0
:1052F000AC01C701B6010E9421DC0E940ADC6B01EF
:105300007C01602F70E080E090E00E94BCDCA7018F
:1053100096010E94A5DB0E948EDC862FCF910F9113
:10532000FF90EF90DF90CF9008951B9B0EC041E05F
:1053300064E080E090E00E9437D340E064E084E1E4
:1053400090E00E9437D381E008952B9A40E064E01A
:1053500084E190E00E9437D380E00895AF92BF923D
:10536000CF92DF92EF920F93CF93DF93EC016623FE
:1053700019F081E080930E0180910E01813021F4BB
:1053800080E090E00E94970BA090A30CB12C80913C
:105390000E0140910D01849F402D1124CC24CA940C
:1053A000DC2CE0900A0100910B0120910C0162E0DD
:1053B000CE010E946B0A80910E018F5F80930E01D7
:1053C00090910F01981760F481E080930E012FEF08
:1053D0008FEB92E1215080409040E1F700C0000047
:1053E0002FEF8FE599E0215080409040E1F700C019
:1053F0000000DF91CF910F91EF90DF90CF90BF90A1
:10540000AF900895CF93C82F80ED0E94CB058111F6
:105410000AC08C2F0E94EB0581ED0E94CF050E94EF
:105420000706C82F01C0C0E00E94E3058C2FCF9172
:1054300008950F931F93CF938C0180ED0E94CB05AD
:10544000811154C00E94EB05F8018081CAE06C2FE5
:105450000E949DDF292FF0E18F9FC0011124822B34
:105460000E94EB05F80181816C2F0E949DDF292F9E
:10547000F0E18F9FC0011124822B0E94EB05F801FF
:1054800082816C2F0E949DDF292FF0E18F9FC00148
:105490001124822B0E94EB0581E00E94EB05F801AC
:1054A00083816C2F0E949DDF292FF0E18F9FC00127
:1054B0001124822B0E94EB05F80184816C2F0E943D
:1054C0009DDF292FF0E18F9FC0011124822B0E94C4
:1054D000EB05F80185816C2F0E949DDF292FF0E1FB
:1054E0008F9FC0011124822B0E94EB05CF911F9149
:1054F0000F910C94E305CF9380ED0E94CB05882398
:1055000041F08091A40C8E7F8093A40CCF910C94D9
:10551000E30580E00E94EB0581ED0E94CF0581113B
:10552000F0CF0E9409068093D50D0E940906809352
:10553000D60D0E9409068093D70D0E9409060E948D
:1055400009068093D80D0E9409068093D90D0E9408
:1055500007068093DA0D0E94E305E091D50DB09126
:10556000D50D7091D60DA091D60D6091D70D2091DB
:10557000D70D5091D80D9091D80D4091D90D8091B3
:10558000D90D3091DA0DF091DA0DB295BF70EF7050
:10559000CAE0BC9FE00D1124E093D50DEA2FE295FF
:1055A000EF707F70AAE0EA9F700D11247093D60D02
:1055B0002695269526952670722F770F770F270F41
:1055C0006F70260F2093D70D9695969596959670A9
:1055D000292F220F220F920F252F2F70920F9093B9
:1055E000D80D82958170880F982F990F990F890F88
:1055F000942F9F70890F8093D90D9F2F92959F7044
:10560000832F8F70CAE09C9F800D11248093DA0D48
:10561000CF910895CF92DF92EF92FF92CF9380EDDA
:105620000E94CB05882381F08091A40C8E7F80930B
:10563000A40C84E190E00E94F1D6CF91FF90EF900E
:10564000DF90CF900C94E30581E10E94EB0584E1AB
:1056500090E00E94F1D681ED0E94CF058111E4CF48
:105660000E9409068093CF0D0E9407068093D00DFB
:105670000E94E30584E190E00E94F1D6C091CF0D35
:105680008091D00D8295869586958370682F70E005
:1056900080E090E00E94BCDC20E030E040E85EE387
:1056A0000E94C3DD6B017C016C2FCC0F770B880B44
:1056B000990B0E94BCDC9B01AC01C701B6010E94A2
:1056C000A6DB20E030E848E853E40E94A6DB6093C4
:1056D000D10D7093D20D8093D30D9093D40DCF91B3
:1056E000FF90EF90DF90CF900895CF93DF93D82F66
:1056F000C62F80ED0E94CB05811104C084E190E0AB
:105700000E94F1D68D2F0E94EB0584E190E00E946B
:10571000F1D68C2F0E94EB050E94E30584E190E016
:10572000DF91CF910C94F1D61092D80D1092D70D35
:105730001092D60D1092D90D1092D50D1092DA0D4F
:1057400081E160DE882341F08EE05CDE682F6062DC
:105750008EE0CBDF80E0089582E154DE8111F4CF4A
:1057600081E008951F93CF93DF931092E20D109282
:10577000E30D1092E40D1092E50D1092DD0D1092E4
:10578000DE0D1092DF0D1092E00D1092DC0D1092E4
:10579000E10D1092DB0D1092E60D81EF0E94CB051A
:1057A000811180C00E9409068093DC0D0E940906C9
:1057B0008093E10D0E9409068093DB0D0E9407068D
:1057C0008093E60D0E94E3058091DC0D81110DC0F0
:1057D0008091E10D811109C08091DB0D811105C01F
:1057E0008091E60D882309F45FC0C091DC0DC2955D
:1057F000C695C695C3708091DC0D8F738093DC0DC8
:105800002091DC0D6091E10DD091DB0D1091E60D42
:1058100070E06656764030E0322F2227620F731F09
:1058200080E090E00E94BADC20E030E048EC54E4F4
:105830000E94C3DD20E03CEC4CE456E40E9421DCF5
:105840006093DD0D7093DE0D8093DF0D9093E00D7E
:105850002D2F30E0322F2227210F311D48EC429F9F
:10586000C001439F900D11246FEF77E00E94A9DFE4
:1058700080E090E00E94BADC20E030E048E452E4AE
:105880000E94A5DB20E030E848E853E40E94A6DB54
:105890006093E20D7093E30D8093E40D9093E50D1A
:1058A0008C2F03C00E94E30584E0DF91CF911F910C
:1058B000089558DF90E09093130180931201209196
:1058C00012013091130181E090E02430310511F490
:1058D00080E090E09093110180931001809112017B
:1058E00090911301009721F0029711F081E0089543
:1058F00080E008958AB183788AB987B18F7387B9B8
:1059000081B18F7581B95E9A5D9A5C9A5B9A5A9A59
:10591000469A479A179AE8E6F0E08081886080838B
:10592000A3E7B0E08C918C678C9380818460808346
:10593000ADE6B0E08C91806C8C9380818160808337
:10594000EBE6F0E08081806A8083089589B18095DC
:105950008C778031B1F028F4843041F0883061F0E8
:105960001FC0803299F08034B1F01AC08091A20C2F
:10597000882309F442C02CC08091A20C81112BC055
:1059800033C08091A20C811129C02BC08091A20C40
:10599000811127C023C08091A20C811125C01BC09A
:1059A00086B18095807C803411F1803819F481E0D3
:1059B00090E0089580B18095807A8032D9F0803867
:1059C00019F080E090E008958091A20C811115C03B
:1059D00089E090E0089588E090E0089587E090E005
:1059E000089586E090E0089585E090E0089583E0D2
:1059F00090E0089582E090E0089584E090E00895BA
:105A0000A5DF811104C081E08093AA0C08959091D4
:105A1000AB0C911109C09091AC0C911105C0809311
:105A2000AC0C81E08093AB0C08951F920F920FB6DF
:105A30000F9211240BB60F922F933F934F935F93C6
:105A40006F937F938F939F93AF93BF93EF93FF9346
:105A5000D7DFFF91EF91BF91AF919F918F917F9190
:105A60006F915F914F913F912F910F900BBE0F90CF
:105A70000FBE0F901F9018951F920F920FB60F92A6
:105A800011240BB60F922F933F934F935F936F9315
:105A90007F938F939F93AF93BF93EF93FF93C5DF54
:105AA000FF91EF91BF91AF919F918F917F916F91F6
:105AB0005F914F913F912F910F900BBE0F900FBEB2
:105AC0000F901F9018951F920F920FB60F921124EE
:105AD0000BB60F922F933F934F935F936F937F93E8
